:020000040800F2
:1000000000000220290B0008D50A0008D70A0008C2
:10001000D90A0008DB0A0008DD0A00080000000019
:10002000000000000000000000000000DF0A0008DF
:10003000E10A000800000000E30A0008E50A0008E1
:10004000790B0008790B0008790B0008790B000880
:10005000790B0008790B0008790B0008790B000870
:10006000790B0008790B0008790B0008790B000860
:10007000790B0008790B0008790B0008790B000850
:10008000790B0008790B0008790B0008790B000840
:10009000790B0008790B0008790B0008790B000830
:1000A000790B0008790B0008790B0008790B000820
:1000B000E90A0008790B0008790B0008790B0008A1
:1000C000790B0008790B0008790B0008790B000800
:1000D000790B0008790B0008790B0008790B0008F0
:1000E000790B0008790B0008790B0008790B0008E0
:1000F000790B0008790B0008790B0008790B0008D0
:10010000790B0008790B0008790B0008790B0008BF
:10011000790B0008790B0008790B0008790B0008AF
:10012000790B0008790B0008790B0008790B00089F
:10013000790B0008790B0008790B0008790B00088F
:10014000790B0008790B0008790B0008790B00087F
:10015000790B0008790B0008790B0008790B00086F
:10016000790B0008790B0008790B0008790B00085F
:10017000790B0008790B0008790B000800000000DB
:08018000790B0008790B00085F
:1001880010B5054C237833B9044B13B10448AFF3C9
:1001980000800123237010BD5000002000000000E3
:1001A800F821000808B5034B1BB103490348AFF316
:1001B800008008BD0000000054000020F82100085D
:1001C80047F63003038002230A0F090130323A2A26
:1001D80000D30732C25201330A2BF5D170470029E8
:1001E80009DA00B52D2202700130C1F1000100F0DA
:1001F80002F8013000BD30B54FF0000505604560DC
:1002080085600E4BA3FB0143DC0822000A2304FB94
:1002180003F40C1B44F03004445301351146002903
:10022800EFD120B4013D445D425C42554454013154
:10023800013D8D4200D0F6DC31BD0000CDCCCCCCE8
:10024800034613F8012B002AFBD1181A013870470E
:1002580053B94AB9002908BF00281CBF4FF0FF3125
:100268004FF0FF3000F088B9ADF1080C6DE904CE0D
:1002780000F006F8DDF804E0DDE9022304B0704779
:100288002DE9F047089D8E4604468846002B4AD142
:100298008A42174662D9B2FA82F64EB1C6F12003F5
:1002A80001FA06F820FA03F3B74043EA0808B44015
:1002B8004FEA174E1FFA87FCB8FBFEF1230C0EFB22
:1002C800118843EA084301FB0CF29A4209D9FB184A
:1002D80001F1FF3080F0EA809A4240F2E78002396B
:1002E8003B449A1AA3B2B2FBFEF00EFB102243EA7B
:1002F800024300FB0CFC9C4509D9FB1800F1FF32B6
:1003080080F0D6809C4540F2D3803B44023840EAD6
:100318000140A3EB0C0300211DB1F3400022C5E905
:100328000032BDE8F0878B4205D90DB1C5E900015F
:1003380000210846F5E7B3FA83F1002946D1734551
:1003480002D3824200F20581841A6EEB0302012077
:100358009046002DE5D0C5E90048E2E7002A00F004
:100368009080B2FA82F6002E40F0A4808A1A030C1C
:100378004FEA174E80B2BCB20121B2FBFEFC0EFB65
:100388001C2243EA024304FB0CF29A4207D9FB18E9
:100398000CF1FF3802D29A4200F2E080C4469B1A60
:1003A800B3FBFEF20EFB123340EA034302FB04F4F4
:1003B8009C4207D9FB1802F1FF3002D29C4200F29E
:1003C800CA8002461B1B42EA0C40A5E7C1F1200681
:1003D8008B4022FA06F71F430EFA01F420FA06F3BF
:1003E8002EFA06FE4FEA1749234300FA01F81FFACE
:1003F80087FCBEFBF9F01C0C09FB10EE44EA0E4426
:1004080000FB0CFEA64502FA01F209D93C1900F1DD
:10041800FF3A80F09C80A64540F2998002383C441F
:10042800A4EB0E041FFA83FEB4FBF9F309FB134493
:100438004EEA044403FB0CFCA44508D93C1903F11B
:10044800FF3E80F08280A4457FD9023B3C4443EACA
:100458000040A4EB0C04A0FB02EC64457346E146A3
:1004680062D35FD05DB1B8EB030264EB090404FA10
:1004780006F622FA01F31E43CC40C5E900640021C8
:100488004FE7B1FBF2FC010C41EA0E4180B240EAB1
:1004980001423B4638463C46B846BE462026B1FB9C
:1004A800F7F1A2EB080241EA0C4166E7014618E7BA
:1004B80010462CE7C6F120022EFA02F3B740B140ED
:1004C80020FA02F24FEA174E0A43B3FBFEF8BCB219
:1004D8000EFB1833110C41EA034108FB04F9B04044
:1004E80089454FEA104380B23ED9791808F1FF3C9C
:1004F80001D289451FD8A1EB0901B1FBFEF909FB1F
:1005080004F80EFB191192B242EA0142424529D27F
:10051800BA1809F1FF31C4D24245C2D2A9F1020189
:100528003A44BEE7F0459DD2BEEB02036CEB070CE4
:100538000138E14696E7A7EB09094944A8F1020CFE
:10054800B1FBFEF909FB04F8DBE773467FE7504689
:1005580066E70846FDE63B44023A33E7ACF1020C95
:100568003B441CE749469CE7A1EB0901C446B1FBA3
:10057800FEF909FB04F8C4E7704700BF10B594B052
:100588001422002109A801F007FE1422002103A863
:1005980001F002FE00231F4A0193116C41F08051C3
:1005A8001164126C02F080520192019A1A4A029365
:1005B800116841F4804111601268022402F48042FB
:1005C8000820CDE90E430292A823CDE91003029A30
:1005D800089401211022042308A8CDE90B121294D3
:1005E800139300F06FFC08B172B6FEE70F23CDE954
:1005F800033405904FF4A0524FF48053052103A80B
:10060800CDE9062300F03AFE08B172B6FEE714B051
:1006180010BD00BF00380240007000402DE9F04FC7
:1006280093B000F0CBFAFFF7A9FF142200210BA822
:1006380001F0B2FD0024B74B01941A6BB64842F0A2
:1006480002021A631A6B02F002020192019A0294E2
:100658001A6B42F010021A631A6B02F0100202922F
:10066800029A03941A6B42F008021A631B6B03F098
:1006780008030393012203211025039B00F01CFCAF
:1006880001230322A4480BA9CDE90B23CDE90D448E
:1006980000F03AFB2A46214607A801F07DFD2A46CC
:1006A80021460EA801F078FD9C4808954FF020439C
:1006B800036003F58273C0E901341D224FF48043BF
:1006C8000721C0E90C3406920F231122CDE90B1340
:1006D800CDE90F5209920D914FF480570BAA0DEBFB
:1006E8000501C0E90344C0E90554C0E90744C0E96D
:1006F8000A74CDE9043344628463446400F058FE0C
:10070800064608B172B6FEE7854C2A460146854D75
:100718000BA801F041FD4FF080432046CDE9046667
:10072800C4E90036C4E90356A660A66100F0AEFF2E
:1007380008B172B6FEE70BA920460B9701F009F83D
:1007480008B172B6FEE70821204600F0CBFF08B1D9
:1007580072B6FEE7CDE9040004A9204601F092F83C
:10076800064608B172B6FEE701F092FB6E4801F04A
:10077800D3FB304601F0FCFB6C4EDFF8E48100202F
:1007880001F0C4FB4FF6E07001F0BAFB204600F020
:1007980077FE4FF08042002313602046D562336015
:1007A800C8F800309362536200F030FE60484FF0A2
:1007B800C0414FF4714C4FF6FF7ED8F80030002B43
:1007C80000F0F080204600F05BFE5A4A01235521D4
:1007D800002001F095FC584A01238721002001F0F0
:1007E8008FFC4FF4FA6000F015FA002001F0C0FB0E
:1007F800484A136C43F001031364BFF34F8F4FF063
:10080800C0480027DFF82891A8F80070B9F8001050
:10081800494889B2FFF7D4FC3846484A0123552194
:1008280001F06EFC3846464A03237D2101F068FC3E
:10083800444A03237D218C2001F062FC40F2DC5005
:1008480000F0E8F94FF080434FF0FF321F6039465F
:100858009F625F62DA6201221A60502708464FF0F1
:10086800510C4FF0EF0E4FF0520A5A6AAA4240F26A
:100878009B8000271F603048FFF7BDFC38462E4A92
:1008880001235F2101F03CFC38462F4A01233C211B
:1008980001F036FC2D4A01238721384601F030FC4F
:1008A80040F2DC5000F0B6F9384601F061FB3846FA
:1008B80001F02CFB4FF6E07001F022FB3846244A89
:1008C80001235F2101F01CFC224A01237D213846C7
:1008D80001F016FC40F2DC5000F09CF91F2001F0FA
:1008E80047FB1F2001F012FB4FF6FF7001F008FBD9
:1008F8003846194A01235F2101F002FC3846174A9D
:1009080001237D2101F0FCFB40F2DC5000F082F96C
:1009180033E700BF00380240000402408400002092
:10092800D4000020FFBC01050C000020700000204E
:100938000000026010220008740000201C22000839
:10094800272200087A000020302200083B220008F5
:1009580046220008532200085D2200086C22000885
:100968006C0000203768013737601FFA82FB4FF0B0
:1009780021070132A1F800A0B2F5A07F03800F8003
:100988004FF02207A0F800B00F80A0F80090E9D13E
:10099800013B9BB273453FF410AF00224FF0200A91
:1009A800E146DFE7EF23F8E75322A8F80070A9F83B
:1009B8000000A8F800C0A9F800E0A8F800A0A9F86D
:1009C8000000A8F8002040F23F12A9F800202222D7
:1009D800A8F8002001314FF496324FF01F0B013A6E
:1009E800A9F800B0FBD140E782B00C4B0021009180
:1009F8005A6C42F480425A645A6C02F48042009263
:100A0800009A01911A6C42F080521A641B6C03F030
:100A180080530193019B02B0704700BF0038024029
:100A28000368B3F1804F07B516D1002203F50E33E2
:100A38000192196C41F0010119641B6C03F0010368
:100A4800019311461C20019B00F00AF91C2003B0F9
:100A58005DF804EB00F036B903B05DF804FB000064
:100A6800F0B587B000230393144B1C6824BB012204
:100A78001A60134B00949A6B124842F001029A6371
:100A88009B6B03F001030093009B02274FF68073D2
:100A980003260C2501A9CDE90137CDE9046500F04D
:100AA80033F94CF6B3730848059501A9CDE9013728
:100AB800CDE9034600F028F907B0F0BD1C0100207D
:100AC8000038024000100240000C0240FEE7FEE73A
:100AD800FEE7FEE7FEE770477047704700F088B80A
:100AE80008B5064B06481968FFF785FB054B06480D
:100AF80001221A60BDE8084000F0E0BC7000002048
:100B0800740000206C000020D4000020034AD2F8B2
:100B1800883043F47003C2F88830704700ED00E075
:100B2800DFF834D0FFF7F2FF0C480D490D4A0023D7
:100B380002E0D458C4500433C4188C42F9D30A4A8A
:100B48000A4C002301E013600432A242FBD301F0F7
:100B58002BFBFFF763FD7047000002200000002018
:100B680050000020583D0008500000201C070020BD
:100B7800FEE7000038B50E4B1A784FF47A73B3FBD2
:100B8800F2F30C4A05461068B0FBF3F000F0A8F841
:100B9800044658B90F2D09D8024629464FF0FF30B0
:100BA80000F05EF8044B20461D6038BD0120FCE7CC
:100BB80004000020000000200800002008B50B4BAE
:100BC8001A6842F400721A601A6842F480621A6065
:100BD8001A6842F480721A60032000F02FF80F2080
:100BE800FFF7C8FFFFF700FF002008BD003C0240E8
:100BF800034A044B11681B780B441360704700BF0D
:100C08002001002004000020014B1868704700BF35
:100C18002001002038B50446FFF7F6FF631C1CBF0F
:100C2800054B1B78054618BFE418FFF7EDFF431B7B
:100C3800A342FAD338BD00BF040000200749CA68A0
:100C480022F4E0620302120403F4E063120C13437B
:100C580043F0BF6343F40033CB60704700ED00E01E
:100C6800164B30B5DC68C4F30224C4F10703251D14
:100C7800042B28BF0423062D4FF0FF358CBF033CFF
:100C8800002405FA03F321EA0303A54022EA05023A
:100C9800A340002843EA0203ACBF00F16040084AC1
:100CA8004FEA0313B8BF00F00F00DBB2AABF00F58C
:100CB8006140135480F8003330BD00BF00ED00E000
:100CC80014ED00E0002807DB044A4109012300F085
:100CD8001F00834042F82130704700BF00E100E068
:100CE8000138B0F1807F0BD24FF0E023054A5861FC
:100CF800F02182F823100020072298611A617047BA
:100D08000120704700ED00E02DE9F74FDFF8A491CE
:100D1800664A00230D6801249C4004EA0506AC439A
:100D280040F0AF804D68032705F003044FEA4308FD
:100D380007FA08FC671E012F6FEA0C0C34D8876885
:100D480007EA0C0ECF6807FA08F747EA0E0787602C
:100D5800476827EA060EC5F300179F4047EA0E07C3
:100D68004760C76807EA0C0E8F6807FA08F747EA72
:100D78000E07022CC76019D14FEAD30A00EB8A0A82
:100D880003F0070BDAF820704FEA8B0B4FF00F0EC9
:100D98000EFA0BFE27EA0E0E0F6907FA0BF747EA61
:100DA8000E07CAF8207001E0032CDAD1076804FAAC
:100DB80008F407EA0C073C4315F4403F046060D090
:100DC80000240194D9F8444044F48044C9F84440CC
:100DD800D9F8444023F0030707F1804704F480441E
:100DE80007F59C37019403F0030C019CD7F808E041
:100DF8004FEA8C0C0F2404FA0CF42EEA040E2C4C47
:100E0800A04245D004F58064A04243D004F5806434
:100E1800A04241D004F58064A0423FD004F580642C
:100E2800A0423DD004F58064A0423BD004F5806424
:100E3800A04239D004F58064A04214BF08240724D6
:100E480004FA0CF444EA0E04BC609468F74315F401
:100E5800801F0CBF3C4034439460D46815F4001FD5
:100E68000CBF3C403443D460546815F4003F0CBFB9
:100E78003C40344354601468ED0354BF3C40344351
:100E880014600133102B7FF445AF03B0BDE8F08F39
:100E98000024D5E70124D3E70224D1E70324CFE7D0
:100EA8000424CDE70524CBE70624C9E7003C01402C
:100EB80000000240003802400AB18161704709040D
:100EC800FBE700002DE9F341044640B30368DE0761
:100ED80010D423689D075BD42368190700F19D800F
:100EE80023685A0700F1BD80A369002B40F02481D4
:100EF80000202CE08D4B9A6802F00C02042A07D0DF
:100F08009A6802F00C02082A0BD15B68590208D5CE
:100F1800864B1B689A03DCD56368002BD9D1012066
:100F280015E06368814DB3F5803F13D12B6843F416
:100F380080332B60FFF768FE7C4E054633689B03C1
:100F4800C7D4FFF761FE401B6428F7D9032002B01D
:100F5800BDE8F081B3F5A02F04D12B6843F48023BA
:100F68002B60E3E72A6822F480322A602A6822F498
:100F780080222A60002BDDD1FFF746FE06462B684B
:100F88009F03A6D5FFF740FE801B6428F7D9DDE74D
:100F9800664B9A6812F00C0F07D09A6802F00C02A0
:100FA800082A11D15B685D020ED4604A136899075C
:100FB80002D5E368012BB2D11368216923F0F80345
:100FC80043EAC103136087E7E268594BB2B10122D3
:100FD8001A60FFF719FE554D06462B689B0707D583
:100FE8002B68226923F0F80343EAC2032B6073E7F6
:100FF800FFF70AFE801B0228EFD9A7E71A60FFF760
:1010080003FE4A4E054633689F077FF565AFFFF735
:10101800FBFD401B0228F6D998E76269444B82B170
:101028000122C3F8802EFFF7EFFD404E0546736F8F
:101038009B073FF555AFFFF7E7FD401B0228F6D9A0
:1010480084E7C3F8802EFFF7DFFD384E0546736F3F
:101058009F077FF545AFFFF7D7FD401B0228F6D95C
:1010680074E7324B1A6C12F0805228D101921A6C34
:1010780042F080521A641B6C03F080530193019B69
:1010880001272C4D2B68D8051BD5A368274D012BAC
:1010980027D12B6F43F001032B67FFF7B5FD234ED4
:1010A800054641F28838336F9A0739D5002F3FF447
:1010B8001BAF1E4A136C23F08053136414E70027F8
:1010C800DFE72B6843F480732B60FFF79DFD06462E
:1010D8002B68D905D9D4FFF797FD801B0228F7D9CB
:1010E80034E7052B04D12B6F43F004032B67D0E7BB
:1010F8002A6F22F001022A672A6F22F004022A6767
:10110800002BCAD1FFF780FD41F2883806462B6FC5
:101118009B07CBD5FFF778FD801B4045F7D915E72E
:10112800FFF772FD401B4045BDD90FE7003802406C
:101138000000474200700040374DAA6802F00C02D8
:10114800082A3ED0022B354B4FF000021A662BD1ED
:10115800FFF75AFD06462B6899011FD4D4E90732D8
:101168001343626A43EA8213E26A43EA0263A26AA9
:101178005208013A43EA02436B60284B264D01228C
:101188001A66FFF741FD04462B689A013FF5B0AE99
:10119800FFF73AFD001B0228F6D9D7E6FFF734FD22
:1011A800801B0228D7D9D1E6FFF72EFD04462B680D
:1011B8009B017FF59DAEFFF727FD001B0228F6D99E
:1011C800C4E6012B3FF4ABAE6B68E26903F480011F
:1011D80091427FF4A4AE216A03F03F028A427FF471
:1011E8009EAE616A47F6C0721A40B2EB811F7FF467
:1011F80096AEA26A520803F44031013AB1EB024FAD
:101208007FF48DAEE26A03F07063B3EB026F14BF34
:10121800012000209BE600BF003802400000474242
:10122800134908B58B6803F00C03042B1CD0082B5A
:101238001CD14A684B68496813F4800314BF0D48F1
:101248000D48C1F3881118BF002302F03F02A1FB2B
:101258000001FEF7FDFF064B5B68C3F30143013352
:101268005B00B0FBF3F008BD0248FCE70248FAE770
:101278000038024040787D010024F4002DE9F04157
:101288000D46044610B90120BDE8F081434B1A68A9
:1012980002F007028A4228D321688F072DD4C80795
:1012A80040D43E4B1A6802F00702AA4265D8226869
:1012B80051076BD4130707D5394A2169936823F47A
:1012C800604343EAC1039360FFF7AAFF344B354AF2
:1012D8009B68C3F30313D35CD840334B1860334B7C
:1012E8001868FFF747FC0020CEE7CAB21A701B68DF
:1012F80003F007038B42C6D1CEE7294B11F0040F48
:101308001EBF9A6842F4E0529A600E0742BF9A687C
:1013180042F460429A609A68A06822F0F0020243A0
:101328009A60BCE762681E4B012A1CD11B6813F443
:10133800003FA8D01A4EB36823F003031343B360E9
:10134800FFF762FC41F288380746B368626803F029
:101358000C03B3EB820FA4D0FFF756FCC01B40452B
:10136800F3D9032090E7911E01291B6802D813F0D6
:10137800007FDEE713F0020FDBE7EAB21A701B68A2
:1013880003F00703AB427FF47EAF90E70449E068BF
:101398008B6823F4E05303438B608BE7003C0240E7
:1013A800003802407D2200080000002008000020CC
:1013B80070B50E461546044628B390F8493003F038
:1013C800FF021BB980F84820FFF74AFB04F1080127
:1013D800206800F097FAA2682068314600F0C4FA45
:1013E800236BA2686068294600F0D8FA2268A168D1
:1013F80052F8213043F0010342F82130012384F8E8
:101408004930002070BD0120FCE7000090F83D3015
:10141800012B30D1022380F83D300368DA6842F0AE
:101428000102DA60154A93421AD0B3F1804F17D0FF
:10143800A2F57C42934213D002F5806293420FD00A
:1014480002F5806293420BD002F57842934207D0AE
:1014580002F57052934203D0A2F59432934204D11C
:101468009A6802F00702062A03D01A6842F00102BD
:101478001A60002070470120704700BF000001403B
:101488000368DA6822F00102DA60196A41F211127F
:10149800114208D1196A40F24442114202BF1A6847
:1014A80022F001021A60012380F83D3000207047C5
:1014B800704770477047704770477047036870B54A
:1014C800DD681E69B10704460DD5AA070BD56FF074
:1014D80002021A61012202779B699B0769D0FFF714
:1014E800EAFF00232377710710D56A070ED5236812
:1014F8006FF004021A61022222779B6913F4407F7D
:1015080020465CD0FFF7D7FF0023237733070FD59A
:1015180028070DD523686FF008021A610422227784
:10152800DB699907204650D0FFF7C5FF00232377D2
:10153800F20610D5EB060ED523686FF010021A617B
:1015480008222277DB6913F4407F204643D0FFF757
:10155800B2FF00232377F00708D5E90706D52368EB
:101568006FF001021A612046FFF7A3FF320608D583
:101578002B0606D523686FF080021A61204600F01A
:10158800C0F9700608D5690606D523686FF04002D1
:101598001A612046FFF791FFB20622D5AB0620D587
:1015A80023686FF0200220461A61BDE8704000F001
:1015B800A7B9FFF77FFF2046FFF77EFF91E7FFF708
:1015C80079FF2046FFF778FF9EE7FFF773FF204675
:1015D800FFF772FFAAE7FFF76DFF2046FFF76CFFE2
:1015E800B7E770BD274A0368904212D0B0F1804F28
:1015F8000FD0A2F57C4290420BD002F58062904257
:1016080007D002F58062904203D002F578429042FA
:1016180008D14A6823F070031343CA6823F440735F
:10162800134316E0184A9042F7D002F580629042C0
:10163800F3D002F580629042EFD0A2F59832904242
:10164800EBD002F580629042E7D002F580629042CA
:10165800E3D04A6923F0800313438A68C2620A68A8
:101668008262084A904203D002F58062904201D11A
:101678000A690263026842F00402026001224261C0
:1016880003607047000001400040014010B5044667
:1016980030B390F83D3003F0FF021BB980F83C20CE
:1016A800FFF7BEF90223206884F83D30211DFFF7BB
:1016B80099FF012384F84630002084F83E3084F8EE
:1016C8003F3084F8403084F8413084F8423084F860
:1016D800433084F8443084F8453084F83D3010BDF8
:1016E8000120FCE738B50D46044630B390F83D308C
:1016F80003F0FF021BB980F83C20FFF7D9FE022354
:10170800214684F83D3051F8040BFFF76BFF03685E
:1017180023F00803036003682B430360012384F864
:101728004630002084F83E3084F83F3084F8423058
:1017380084F8433084F83D3038BD0120FCE710B50B
:1017480084680A4324F47F4442EA032222438260E5
:1017580010BD38B590F83C30012B04464FF002001C
:1017680000F08E8084F83D000122206884F83C2037
:10177800836823F47F4323F0770383600B68602B2F
:101788004FD032D8402B64D016D8202B0DD00AD891
:1017980033F0100109D0012384F83D30002384F888
:1017A8003C30104638BD302BF5D1826822F07002EB
:1017B800134343F0070328E0502BECD14A68CD6867
:1017C800016A036A23F001030362836921F00A01B5
:1017D80023F0F00343EA05130A4383610262836836
:1017E80023F0700343F057030FE0B3F5805F0DD08B
:1017F800B3F5005F0CD0702BCDD1CB68D1E90121B6
:10180800FFF79DFF836843F0770383600022C2E7F8
:10181800CB68D1E90121FFF792FF836843F4804345
:10182800F3E7036A026A4D68C96822F0100202628F
:10183800826923F0A00322F4704243EA051342EAC6
:10184800013282610362836823F0700343F0670307
:10185800DBE74A68CD68016A036A23F00103036283
:10186800836921F00A0123F0F00343EA05130A43D0
:1018780083610262836823F0700343F04703C4E77F
:1018880002468EE730B590F83C30012B02464FF007
:10189800020032D0136882F83D005C680D689868D1
:1018A80024F070042C435C60144CA3421AD0B3F1AA
:1018B800804F17D0A4F57C44A34213D004F580646C
:1018C800A3420FD004F58064A3420BD004F57844FA
:1018D800A34207D004F57054A34203D0A4F594346E
:1018E800A34204D1496820F0800001439960012394
:1018F800002082F83D3082F83C0030BD00000140F5
:10190800704770470A6850F8223023F0010370B519
:101918008C6840F822304B68CE6850F82250234338
:1019280033430E6933434E693343CE6933430E6AFA
:1019380033434E6A33438E6A3343CE6A33430E6B66
:1019480033438E69C96B33430B43064929400B4324
:10195800A4F108014C424C4143EA841340F8223078
:10196800002070BD8000F0FF0B6810B58C69234320
:101978004C6843EA04138C6843EA0423CC6843EABE
:1019880004430C694969013C013243EA04530239B2
:1019980043EA016340F82230002010BDB3F5804FC0
:1019A80030B514D18D690B6850F822402B434D682F
:1019B80043EA05138D68C96843EA052343EA0143EE
:1019C800044921400B4340F82230002030BD6FF01D
:1019D8007043F8E70000F0CF4FF4A0707047F02094
:1019E8007047000010B54FF0C04420232380C1F198
:1019F800EF01054B89B2198021212180222118800D
:101A080021801A8010BD00BF000008606420FFF725
:101A180001B908B5FFF7FAFF4FF0C04300221A805A
:101A280003F50033188880B208BD0000044B014458
:101A3800884200D1704730F8022B1A80F8E700BFBF
:101A48000000026007B54FF0C043ADF806101880DB
:101A580002210DF10600FFF7E9FF03B05DF804FB72
:101A680008B547F6F001E520FFF7ECFF4FF4807169
:101A78000120FFF7E7FF4FF4E0610220FFF7E2FFE4
:101A880041F230010320FFF7DDFF00210420FFF7BA
:101A9800D9FF40F207210820FFF7D4FF00210920D1
:101AA800FFF7D0FF00210A20FFF7CCFF00210C2010
:101AB800FFF7C8FF00210D20FFF7C4FF00210F200A
:101AC800FFF7C0FF00211020FFF7BCFF07211120FE
:101AD800FFF7B8FF00211220FFF7B4FF0021132001
:101AE800FFF7B0FF01210720FFF7ACFFC820FFF781
:101AF80091F841F290011020FFF7A4FF40F227214E
:101B08001120FFF79FFF3220FFF784F81F211220D2
:101B1800FFF798FF3220FFF77DF84FF4A851132004
:101B2800FFF790FF27212920FFF78CFF0D212B209D
:101B3800FFF788FF3220FFF76DF800212020FFF71C
:101B480081FF00212120FFF77DFF07213020FFF7CB
:101B580079FF40F207713120FFF774FF0621322028
:101B6800FFF770FF40F204713520FFF76BFF41F675
:101B780004713620FFF766FF04213720FFF762FF64
:101B880000213820FFF75EFF40F206713920FFF789
:101B980059FF40F201713C20FFF754FF0F213D200F
:101BA800FFF750FF00215020FFF74CFFEF21512095
:101BB800FFF748FF00215220FFF744FF40F23F1192
:101BC8005320FFF73FFF4FF427416020FFF73AFF0C
:101BD80001216120FFF736FF00216A20FFF732FF5D
:101BE80000218020FFF72EFF00218120FFF72AFF28
:101BF80000218220FFF726FF00218320FFF722FF24
:101C080000218420FFF71EFF00218520FFF71AFF1F
:101C180010219020FFF716FF4FF4C0619220FFF7C4
:101C280011FFBDE8084040F233110720FFF70ABF53
:101C380008B500211020FFF705FF00211120FFF74C
:101C480001FF00211220FFF7FDFE00211320FFF7FE
:101C5800F9FE41F2B0711020FFF7F4FE40F237119F
:101C68001120FFF7EFFE40F239111220FFF7EAFECC
:101C78004FF4E8511320FFF7E5FE13212920FFF761
:101C8800E1FEBDE8084040F273110720FFF7DABE15
:101C980008B500211020FFF7D5FE00211120FFF71D
:101CA800D1FE00211220FFF7CDFE00211320FFF7FF
:101CB800C9FE00212920FFF7C5FEBDE80840002124
:101CC8000720FFF7BFBE10B5C1F1EF01044689B286
:101CD8002020FFF7B7FE21462120BDE81040FFF77E
:101CE800B1BE08B5FFF7EFFF4FF0C04322221A80BC
:101CF80003F500331A88188880B208BD38B5054640
:101D0800084611461C46FFF7DEFF4FF0C04322226B
:101D18001A80074A002399B28C4205D8610004480A
:101D2800BDE83840FFF782BE22F8025B0133F2E7D4
:101D38002401002070B5049E14461D46FFF7C3FF1A
:101D48004FF0C04305FB04F1222230461A80BDE85B
:101D580070404900FFF76ABE13B500214FF496336F
:101D6800044608460193FFF7AEFF4FF0C043222216
:101D780004491A80019B5A1E01920BB902B010BD8A
:101D88000C80F7E70000086070B50D46C3F1F0015C
:101D9800491B044689B250201646FFF753FEC5F189
:101DA800EF0189B25120FFF74DFE013E2146522036
:101DB800FFF748FEA11989B2BDE870405320FFF72C
:101DC80041BE0000F8B517460E4605464FF481514E
:101DD80003201C46FFF736FE39463046FFF773FFEF
:101DE8004FF0C04322221A80094A002399B28C423C
:101DF8000AD861000648FFF719FEBDE8F84041F22D
:101E080028010320FFF71EBE22F8025B0133EDE72D
:101E180024010020F8B555880F4691885389064655
:101E28009089ADB29BB243EA004345EA01450320DD
:101E380041F23801D418ED1AFFF704FE394630464E
:101E4800FFF741FF4FF0C043222225F00101204651
:101E58001A80FFF7EBFDBDE8F84041F228010320A6
:101E6800FFF7F0BD024B1B685B6903B11847704769
:101E78000C07002010B4054C2468E4691CB1A44682
:101E88005DF8044B60475DF8044B70470C07002071
:101E980070B50F4D0F4C104EAE604FF6FF736B6070
:101EA80000232B606368984749F22533984206D18E
:101EB8000A4B1C6023689847AE60002070BD6368B9
:101EC800984749F228339842F2D00120F6E700BF3C
:101ED80010070020140000200C0000200C07002030
:101EE80008B5024B1B689B6A984708BD0C07002081
:101EF80008B5024B1B68DB6A984708BD0C07002031
:101F0800014B1860704700BF10070020014B586054
:101F1800704700BF10070020014B9860704700BF52
:101F280010070020104B1B682DE9F0411C6A06467B
:101F38000F461546A4B113460A4601460B48A44667
:101F48000088BDE8F04160473019B8F800203946EC
:101F580080B2FFF787FF0134AC42F5D3BDE8F081CA
:101F6800DFF80880F8E700BF0C0700201007002002
:101F780070B50A4D00242E682860FFF7B9FFA0420B
:101F880002D8B6B22E6070BDFFF7AAFFA1B282B226
:101F98000020FFF7C7FF0134EFE700BF100700205C
:101FA80070B5D2F816301446D2F812209BB292B20D
:101FB80005460E46FFF75EFF0A4B1B681B6B1BB1FD
:101FC8002246314628469847FFF78AFF0446FFF71E
:101FD8008FFF002183B2A2B20846BDE87040FFF728
:101FE80049BF00BF0C0700202DE9F04F424FBB68E6
:101FF800D7F804E0DC88D3F800C03F6889B0CDE9A1
:10200800050198883D49C51DED1014FB00F31B33ED
:10201800C0EBC5065B00F6B24B80009600FB04F3EC
:102028005FFA8EF61B330396CEF3072643F3CF33BE
:102038000496FEB28B8001963623C7F30726203A12
:102048006FF001074B81029600234743C4F1010E4C
:102058006243A0F1110648828B82CC820B8305FB78
:1020680002C20EFB0711984607964FF0010BA045D8
:1020780007D3DDE90501214A09B0BDE8F04FFFF7B4
:102088008FBF079E072E15D8537892F800C01B0201
:1020980043EA0C4392F802C043EA0C03009E8E46C2
:1020A80006EB000C009E664514D108F1010839447E
:1020B8002A44DCE7A0F1090CBCF1070F03D8138808
:1020C8005BBA9BB2EAE700F1FF3CBCF1070F98BF8F
:1020D8001378E3E70CF1FF3C0BFA0CF919EA030F4C
:1020E8000CBFDDE903A9DDE901A90EF1020E8EF8A6
:1020F80034A08EF83590D5E710070020A4030020FF
:102108002DE9F047054610469A460E469046FEF7DA
:1021180097F8204F8146FFF7E3FEBB68BAF1010F3D
:102128009B88B0FBF3F41AD0BAF1020F1ED008F165
:10213800FF38002418F8019FB9F1000918BF4FF0C3
:102148000109FFF7CDFEBB689B8803FB140080B232
:10215800984202D3B9F1000F0ED1BDE8F087A4EB85
:1021680009045C4305EB540085B2E0E7A4EB0904DD
:1021780014FB03F4601BF7E7284698F80020314663
:10218800FFF732FFBB689B8801342B449DB2A4B291
:10219800D0E700BF1007002002440346934200D155
:1021A800704703F8011BF9E770B50D4D0D4C641B22
:1021B800A4100026A64209D10B4D0C4C00F018F8CB
:1021C800641BA4100026A64205D170BD55F8043B37
:1021D80098470136EEE755F8043B98470136F2E791
:1021E800503D0008503D0008503D0008543D00088F
:1021F800F8B500BFF8BC08BC9E467047F8B500BFEC
:08220800F8BC08BC9E467047BB
:10221000444F5453202F207365632E004C434420B9
:10222000445249564552002020202020494C490064
:10223000434C53204652414D455300504552205384
:1022400045434F4E4400436F707972696768742844
:1022500063290057617665736861726500494C496E
:10226000393332352044524956455200332E3269B3
:102270006E6368204C43442044656D6F000000008D
:102280000000000000010203040607080900000026
:10229000000000000000000000000000000000003E
:1022A000000000000000000000000000000000002E
:1022B000000000000000000000000000000000001E
:1022C000000000000000000000000000000000000E
:1022D00000000000000000000000000380000380F8
:1022E000000380000380000380000380000380005F
:1022F00003800003800001000001000000000000D6
:1023000000000380000380000000000000000000C7
:1023100000000000000000000000000000000000BD
:102320000000000000000E70000E70000E7000042F
:102330002000042000042000042000000000000011
:10234000000000000000000000000000000000008D
:10235000000000000000000000000000000000007D
:1023600000000000000000000000000660000660A1
:10237000000660000660000660003FF8003FF800BD
:102380000660000CC0003FF8003FF8000CC0000CD5
:10239000C0000CC0000CC0000CC000000000000019
:1023A000000000000000000000000000000000002D
:1023B00001800001800007B0000FF00018700018C5
:1023C00070001C00000F800007E00000F0001830D3
:1023D000001C30001C70001FE0001BC000018000CA
:1023E000018000018000018000000000000000006A
:1023F00000000000000000000000000780000FC087
:10240000001CE0001860001860001CE0000FF800DD
:1024100007E0001FF0000738000618000618000744
:10242000380003F00001E0000000000000000000A0
:10243000000000000000000000000000000000009C
:1024400000000000000000000003F00007F0000C96
:1024500060000C00000C00000600000700000F9C4C
:10246000001DFC0018F0001870000FFC0007DC00D5
:10247000000000000000000000000000000000005C
:1024800000000000000000000000000000000380C9
:102490000003800003800001000001000001000033
:1024A000010000000000000000000000000000002B
:1024B000000000000000000000000000000000001C
:1024C000000000000000000000000000000000000C
:1024D00000000000180000380000700000F000004C
:1024E000E00000E00001C00001C00001C00001C028
:1024F0000001C00001C00000E00000E0000070002A
:10250000007000003800001800000000000000000B
:1025100000000000000000000000001800001C0087
:10252000000E00000E0000070000070000038000FE
:102530000380000380000380000380000380000705
:1025400000000700000F00000E00001C0000180033
:10255000000000000000000000000000000000007B
:102560000000000180000180000180001DB8001FF4
:10257000F80007E00003C00003C00006600006602A
:10258000000000000000000000000000000000004B
:10259000000000000000000000000000000000003B
:1025A000000000000000000000000000000000002B
:1025B0000001800001800001800001800001800096
:1025C0003FFC003FFC000180000180000180000111
:1025D00080000180000000000000000000000000FA
:1025E00000000000000000000000000000000000EB
:1025F00000000000000000000000000000000000DB
:1026000000000000000000000000000000000000CA
:102610000000000000000000E00000C00001C00059
:1026200001800001800003000003000000000000A2
:10263000000000000000000000000000000000009A
:10264000000000000000000000000000000000008A
:102650001FF8001FF800000000000000000000004C
:10266000000000000000000000000000000000006A
:10267000000000000000000000000000000000005A
:10268000000000000000000000000000000000004A
:10269000000000000000000000000000000000003A
:1026A0000000000000000003C00003C00003C000E1
:1026B000000000000000000000000000000000001A
:1026C0000000000000001800001800003800003072
:1026D0000000700000600000600000C00000C0004A
:1026E00001800001800003000003000006000006D6
:1026F00000000E00000C00001C0000180000180074
:1027000000000000000000000000000000000000C9
:1027100000000003C00007E0000C30000C3000187F
:1027200018001818001818001818001818001818A1
:10273000001818000C30000C300007E00003C00047
:102740000000000000000000000000000000000089
:102750000000000000000000000000008000078072
:10276000001F80001D8000018000018000018000AA
:1027700001800001800001800001800001800001D3
:1027800080001FF8001FF80000000000000000009B
:102790000000000000000000000000000000000039
:1027A00000000007C0001FF0003830003018003073
:1027B000180000180000300000600001C000038015
:1027C000000600000C00001800003FF8003FF80071
:1027D00000000000000000000000000000000000F9
:1027E000000000000000000000000003C0000FE037
:1027F000000C700000300000300000600003C000DA
:1028000003E0000070000018000018000018001815
:1028100038001FF0000FC0000000000000000000A2
:1028200000000000000000000000000000000000A8
:1028300000000000E00001E00001E000036000068D
:1028400060000660000C60000C60001860003060E2
:10285000003FF8003FF80000600003F80003F800B4
:102860000000000000000000000000000000000068
:1028700000000000000000000000001FF0001FF03A
:10288000001800001800001800001BC0001FF00016
:102890001C3000001800001800001800001800305C
:1028A00030003FF0000FC0000000000000000000FA
:1028B0000000000000000000000000000000000018
:1028C00000000000F80003F8000700000E00000CF4
:1028D00000001800001BC0001FF0001C300018187A
:1028E000001818001818000C38000FF00003E00062
:1028F00000000000000000000000000000000000D8
:1029000000000000000000000000001FF8001FF899
:102910000018180018380000300000300000700067
:1029200000600000600000E00000C00000C0000186
:10293000C0000180000180000000000000000000D5
:102940000000000000000000000000000000000087
:1029500000000007E0000FF0001C380018180018F5
:1029600018000C300007E00007E0000C30001818D9
:10297000001818001818001C38000FF00007E000BD
:102980000000000000000000000000000000000047
:10299000000000000000000000000007C0000FF071
:1029A000001C30001818001818001818000C380007
:1029B0000FF80003D800001800003000007000007D
:1029C000E0001FC0001F0000000000000000000029
:1029D00000000000000000000000000000000000F7
:1029E00000000000000000000000000000000003E4
:1029F000C00003C00003C000000000000000000091
:102A00000000000000000003C00003C00003C0007D
:102A100000000000000000000000000000000000B6
:102A200000000000000000000000000000000000A6
:102A30000000000000000000F00000F00000F000C6
:102A400000000000000000000000000000E00001A5
:102A5000C0000180000180000300000200000000AF
:102A60000000000000000000000000000000000066
:102A7000000000000000000000001C00003C0000FE
:102A8000F00003C0000F00003C0000F000003C001C
:102A9000000F000003C00000F000003C00001C001C
:102AA0000000000000000000000000000000000026
:102AB0000000000000000000000000000000000016
:102AC000000000000000000000007FFC007FFC0010
:102AD0000000000000007FFC007FFC000000000000
:102AE00000000000000000000000000000000000E6
:102AF00000000000000000000000000000000000D6
:102B00000000000000000000007000007800001EBF
:102B1000000007800001E000007800001E0000783F
:102B20000001E0000780001E000078000070000037
:102B30000000000000000000000000000000000095
:102B4000000000000000000000000000000007C0BE
:102B5000000FE000187000183000183000007000FE
:102B600000E00003C000038000030000000000003C
:102B70000000070000070000000000000000000047
:102B80000000000000000000000000000000000045
:102B900000000003E00007F0000E38000C180018D9
:102BA000780018F80019D800199800199800199899
:102BB0000018F8001878001800000C00000E18002B
:102BC00007F80003E0000000000000000000000023
:102BD00000000000000000000000000000001F8056
:102BE000001FC00001C00003600003600006300049
:102BF0000630000C30000FF8001FF800180C0030F1
:102C00000C00FC7F00FC7F000000000000000000C2
:102C100000000000000000000000000000000000B4
:102C20000000000000007FE0007FF000183800186E
:102C300018001818001838001FF0001FF800181CA2
:102C400000180C00180C00180C007FF8007FF00032
:102C50000000000000000000000000000000000074
:102C6000000000000000000000000000000003EC75
:102C7000000FFC001C1C00180C00300C0030000081
:102C8000300000300000300000300000180C001C44
:102C90001C000FF80003F00000000000000000001E
:102CA0000000000000000000000000000000000024
:102CB0000000000000007FC0007FF00018380018FE
:102CC0001800180C00180C00180C00180C00180C38
:102CD00000180C001818001838007FF0007FE00082
:102CE00000000000000000000000000000000000E4
:102CF00000000000000000000000000000007FF85D
:102D0000007FF800181800181800199800198000A2
:102D10001F80001F800019800019980018180018E3
:102D200018007FF8007FF80000000000000000009D
:102D30000000000000000000000000000000000093
:102D40000000000000003FFC003FFC000C0C000CE9
:102D50000C000CCC000CC0000FC0000FC0000CC059
:102D6000000CC0000C00000C00003FC0003FC00081
:102D70000000000000000000000000000000000053
:102D8000000000000000000000000000000003EC54
:102D9000000FFC001C1C00180C00300C0030000060
:102DA00030000030FE0030FE00300C00380C001CFB
:102DB0001C000FFC0003F0000000000000000000F9
:102DC0000000000000000000000000000000000003
:102DD0000000000000007E7E007E7E0018180018B3
:102DE00018001818001818001FF8001FF80018180D
:102DF000001818001818001818007E7E007E7E004B
:102E000000000000000000000000000000000000C2
:102E100000000000000000000000000000001FF89B
:102E2000001FF80001800001800001800001800087
:102E3000018000018000018000018000018000010C
:102E400080001FF8001FF8000000000000000000D4
:102E50000000000000000000000000000000000072
:102E600000000000000007FE0007FE000030000028
:102E700030000030000030000030003030003030D2
:102E8000003030003030003060003FE0000F800044
:102E90000000000000000000000000000000000032
:102EA00000000000000000000000000000007F3E65
:102EB000007F3E0018300018600018C00019800024
:102EC0001B80001FC0001CE00018700018300018A4
:102ED00038007F1F007F1F0000000000000000007E
:102EE00000000000000000000000000000000000E2
:102EF0000000000000007F80007F80000C00000CBC
:102F000000000C00000C00000C00000C00000C0C79
:102F1000000C0C000C0C000C0C007FFC007FFC0073
:102F200000000000000000000000000000000000A1
:102F30000000000000000000000000000000F00F92
:102F400000F81F00381C003C3C003C3C00366C0084
:102F5000366C0033CC0033CC00318C00300C0030A8
:102F60000C00FE7F00FE7F0000000000000000005B
:102F70000000000000000000000000000000000051
:102F800000000000000078FE0078FE001C18001E03
:102F900018001F18001B18001B980019D80018D81B
:102FA0000018F8001878001838007F18007F180003
:102FB0000000000000000000000000000000000011
:102FC000000000000000000000000000000003C03E
:102FD000000FF0001C3800181800381C00300C00DE
:102FE000300C00300C00300C00381C001818001C8D
:102FF00038000FF00003C0000000000000000000D7
:1030000000000000000000000000000000000000C0
:103010000000000000003FF0003FF8000C1C000C16
:103020000C000C0C000C0C000C18000FF8000FE04A
:10303000000C00000C00000C00003FC0003FC0006E
:103040000000000000000000000000000000000080
:10305000000000000000000000000000000003C0AD
:10306000000FF0001C3800181800381C00300C004D
:10307000300C00300C00300C00381C001818001CFC
:1030800038000FF00007C00007CC000FFC000C3820
:103090000000000000000000000000000000000030
:1030A0000000000000007FE0007FF00018380018EA
:1030B00018001818001838001FF0001FC00018E092
:1030C000001870001830001838007F1E007F0E00B6
:1030D00000000000000000000000000000000000F0
:1030E000000000000000000000000000000007D801
:1030F000000FF8001C38001818001818001E0000F7
:103100000FC00003F0000078001818001818001C09
:1031100038001FF0001BE00000000000000000006D
:10312000000000000000000000000000000000009F
:103130000000000000003FFC003FFC00318C00312B
:103140008C00318C00318C000180000180000180F6
:10315000000180000180000180000FF0000FF000EE
:10316000000000000000000000000000000000005F
:1031700000000000000000000000000000007E7E53
:10318000007E7E0018180018180018180018180083
:103190001818001818001818001818001818000C33
:1031A00030000FF00003C00000000000000000002D
:1031B000000000000000000000000000000000000F
:1031C0000000000000007F7F007F7F00180C000CD3
:1031D00018000C18000C18000630000630000360C0
:1031E0000003600003600001C00001C00000800017
:1031F00000000000000000000000000000000000CF
:103200000000000000000000000000000000FE3F81
:1032100080FE3F8030060030060030860019CC006A
:1032200019CC001B6C001B6C001E7C000E38000EBD
:1032300038000C18000C180000000000000000000E
:10324000000000000000000000000000000000007E
:103250000000000000007E7E007E7E001818000C3A
:10326000300006600003C00001800001800003C040
:10327000000660000C30001818007E7E007E7E0084
:10328000000000000000000000000000000000003E
:1032900000000000000000000000000000007C7E34
:1032A000007C7E001818000C3000066000066000EC
:1032B00003C0000180000180000180000180000146
:1032C00080000FF0000FF000000000000000000080
:1032D00000000000000000000000000000000000EE
:1032E0000000000000001FF8001FF8001818001868
:1032F000300018600018C0000180000300000618AC
:10330000000C18001818003018003FF8003FF800B3
:1033100000000000000000000000000000000000AD
:10332000000000000000000000000001F00001F0BB
:103330000001800001800001800001800001800008
:1033400001800001800001800001800001800001F7
:10335000800001800001800001800001F00001F088
:103360000000000000000000000000000018000045
:103370001800001C00000C00000E000006000006F3
:10338000000003000003000001800001800000C075
:103390000000C0000060000060000070000030000D
:1033A00000380000180000180000000000000000B5
:1033B00000000000000000000000000F80000F80EF
:1033C0000001800001800001800001800001800078
:1033D0000180000180000180000180000180000167
:1033E00080000180000180000180000F80000F80BC
:1033F00000000000000000000000000000000000CD
:1034000000800001C00003E0000770000630000CDF
:103410001800180C0010040000000000000000005C
:10342000000000000000000000000000000000009C
:10343000000000000000000000000000000000008C
:10344000000000000000000000000000000000007C
:10345000000000000000000000000000000000006C
:10346000000000000000000000000000000000005C
:10347000000000000000000000000000000000004C
:1034800000000000000000FFFF00FFFF0000000040
:1034900003000003800000E0000060000000000066
:1034A000000000000000000000000000000000001C
:1034B000000000000000000000000000000000000C
:1034C00000000000000000000000000000000000FC
:1034D00000000000000000000000000000000000EC
:1034E000000000000000000FC0001FE000003000DE
:1034F00000300007F0001FF000383000303000309E
:1035000070001FFC000FBC00000000000000000065
:1035100000000000000000000000000000000000AB
:103520000000007800007800001800001800001B60
:10353000E0001FF8001C1800180C00180C00180CF4
:1035400000180C00180C001C18007FF8007BE0002D
:10355000000000000000000000000000000000006B
:10356000000000000000000000000000000000005B
:103570000000000000000003EC000FFC001C1C0019
:10358000380C00300C00300000300000380C001CFB
:103590001C000FF80003F000000000000000000015
:1035A000000000000000000000000000000000001B
:1035B00000000000780000780000180000180007E4
:1035C000D8001FF8001838003018003018003018E4
:1035D000003018003018001838001FFE0007DE0009
:1035E00000000000000000000000000000000000DB
:1035F00000000000000000000000000000000000CB
:103600000000000000000007E0001FF8001818008C
:10361000300C003FFC003FFC003000003000001880
:103620000C001FFC0007F00000000000000000007C
:10363000000000000000000000000000000000008A
:1036400000000001FC0003FC000600000600003F33
:10365000F8003FF800060000060000060000060023
:10366000000600000600000600003FF0003FF000EA
:10367000000000000000000000000000000000004A
:10368000000000000000000000000000000000003A
:103690000000000000000007DE001FFE00183800D8
:1036A000301800301800301800301800301800189A
:1036B00038001FF80007D800001800001800003874
:1036C000000FF0000FC0000000000000000000002C
:1036D0000000007800007800001800001800001BAF
:1036E000E0001FF0001C3800181800181800181807
:1036F000001818001818001818007E7E007E7E0042
:1037000000000000000000000000000000000000B9
:1037100000000000000000000000000180000180A7
:10372000000000000000001F80001F8000018000DA
:103730000180000180000180000180000180000103
:1037400080003FFC003FFC00000000000000000083
:103750000000000000000000000000000000000069
:1037600000000000C00000C0000000000000001FBA
:10377000F0001FF00000300000300000300000308A
:103780000000300000300000300000300000300049
:103790000030000030000070001FE0001F800000BB
:1037A00000000000000000000000003C00003C00A1
:1037B000000C00000C00000CF8000CF8000CC0001D
:1037C0000D80000F80000F00000F80000DC0000C66
:1037D000E0003C7C003C7C00000000000000000099
:1037E00000000000000000000000000000000000D9
:1037F0000000001F80001F80000180000180000188
:1038000080000180000180000180000180000180B3
:10381000000180000180000180003FFC003FFC00AF
:103820000000000000000000000000000000000098
:103830000000000000000000000000000000000088
:1038400000000000000000F77800FFFC0039CC0009
:10385000318C00318C00318C00318C00318C003186
:103860008C00FDEF00FDEF000000000000000000F4
:103870000000000000000000000000000000000048
:103880000000000000000000000000000000007BBD
:10389000E0007FF0001C38001818001818001818F5
:1038A000001818001818001818007E7E007E7E0090
:1038B0000000000000000000000000000000000008
:1038C00000000000000000000000000000000000F8
:1038D0000000000000000003C0000FF0001C3800D2
:1038E000381C00300C00300C00300C00381C001C60
:1038F00038000FF00003C0000000000000000000CE
:1039000000000000000000000000000000000000B7
:103910000000000000000000000000000000007B2C
:10392000E0007FF8001C1800180C00180C00180CA0
:1039300000180C00180C001C18001FF8001BE000F9
:103940001800001800001800007F00007F00000031
:103950000000000000000000000000000000000067
:103960000000000000000007DE001FFE0018380005
:1039700030180030180030180030180030180018C7
:1039800038001FF80007D8000018000018000018C1
:103990000000FE0000FE000000000000000000002B
:1039A0000000000000000000000000000000003ED9
:1039B00078003EFC0007CC0007000006000006006F
:1039C000000600000600000600003FF0003FF00087
:1039D00000000000000000000000000000000000E7
:1039E00000000000000000000000000000000000D7
:1039F0000000000000000007F8000FF80018180091
:103A00001818001F80000FF00000F80018180018A8
:103A100038001FF0001FE000000000000000000060
:103A20000000000000000000000000000000000096
:103A30000000000C00000C00000C00000C00003F17
:103A4000F0003FF0000C00000C00000C00000C0027
:103A5000000C00000C00000C1C0007FC0003F00030
:103A60000000000000000000000000000000000056
:103A70000000000000000000000000000000000046
:103A80000000000000000078780078780018180026
:103A9000181800181800181800181800181800181E
:103AA00038000FFE0007DE000000000000000000EC
:103AB0000000000000000000000000000000000006
:103AC0000000000000000000000000000000007C7A
:103AD0003E007C3E001818001818000C30000C3016
:103AE0000006600006600007E00003C00003C0009D
:103AF00000000000000000000000000000000000C6
:103B000000000000000000000000000000000000B5
:103B100000000000000000783C00783C00311800F4
:103B20003398003398001AB0001EF0001EF0001CFD
:103B300060000C60000C600000000000000000004D
:103B40000000000000000000000000000000000075
:103B50000000000000000000000000000000003E27
:103B60007C003E7C000C300006600003C000018039
:103B70000003C0000660000C30003E7C003E7C006C
:103B80000000000000000000000000000000000035
:103B90000000000000000000000000000000000025
:103BA000000000000000007E1F007E1F00180C00B7
:103BB0000C18000C180006300006300003600003EB
:103BC000E00001C00000C00001800001800003008F
:103BD000003FC0003FC000000000000000000000E7
:103BE0000000000000000000000000000000001FB6
:103BF000F8001FF80018300018600000C0000180B5
:103C0000000300000618000C18001FF8001FF80041
:103C100000000000000000000000000000000000A4
:103C2000000000000000000000000000E00001E0D3
:103C300000018000018000018000018000018000FF
:103C40000180000380000700000380000180000164
:103C5000800001800001800001800001E00000E0A0
:103C60000000000000000000000000000000000054
:103C7000000000018000018000018000018000013F
:103C8000800001800001800001800001800001802F
:103C9000000180000180000180000180000180009F
:103CA0000180000180000180000000000000000091
:103CB0000000000000000000000000070000078076
:103CC000000180000180000180000180000180006F
:103CD00001800001C00000E00001C000018000017F
:103CE0008000018000018000018000078000070043
:103CF00000000000000000000000000000000000C4
:103D000000000000000000000000000000000000B3
:103D100000000000000E00001F18003BB80031F04A
:103D20000000E000000000000000000000000000B3
:103D30000000000000000000000000000000000083
:083D400000000000000000007B
:083D480000C5FF7F010000002F
:043D5000AD010008B9
:043D540089010008D9
:103D58000024F40001000000100000008D2200087B
:103D680011001800691A00081B1A0008391C0008FD
:103D7800991C0008CF1C0008ED190008EB1C00086E
:103D8800911D0008051D0008CD1D0008E119000857
:103D9800E71900081D1E00083D1D0008611D0008E8
:0400000508000B29BB
:00000001FF
